:100000000C942A000C9434000C9434000C943400AA
:100010000C9434000C9434000C9434000C94340090
:100020000C9434000C9434000C9434000C94340080
:100030000C9434000C9434000C9434000C94340070
:100040000C9434000C9434000C9434000C94340060
:100050000C94340011241FBECFE5D8E0DEBFCDBF25
:100060000E9420010C94BF010C940000813001F12A
:1000700030F08230B1F1833009F44CC00895413042
:1000800059F42AB381E090E002C0880F991F6A9565
:10009000E2F7822B8ABB08952AB381E090E002C088
:1000A000880F991F6A95E2F7809582238ABB08958D
:1000B000413059F427B381E090E002C0880F991FC6
:1000C0006A95E2F7822B87BB089527B381E090E021
:1000D00002C0880F991F6A95E2F78095822387BB3B
:1000E0000895413059F424B381E090E002C0880FB4
:1000F000991F6A95E2F7822B84BB089524B381E0AF
:1001000090E002C0880F991F6A95E2F780958223DC
:1001100084BB0895413059F421B381E090E002C0DE
:10012000880F991F6A95E2F7822B81BB089521B34E
:1001300081E090E002C0880F991F6A95E2F78095F0
:10014000822381BB0895813001F130F08230B1F11A
:10015000833009F44CC00895413059F42BB381E049
:1001600090E002C0880F991F6A95E2F7822B8BBB43
:1001700008952BB381E090E002C0880F991F6A9523
:10018000E2F7809582238BBB0895413059F428B360
:1001900081E090E002C0880F991F6A95E2F7822BF8
:1001A00088BB089528B381E090E002C0880F991FB2
:1001B0006A95E2F78095822388BB0895413059F40F
:1001C00025B381E090E002C0880F991F6A95E2F79D
:1001D000822B85BB089525B381E090E002C0880F93
:1001E000991F6A95E2F78095822385BB0895413077
:1001F00059F422B381E090E002C0880F991F6A95FC
:10020000E2F7822B82BB089522B381E090E002C026
:10021000880F991F6A95E2F78095822382BB089523
:10022000813041F028F0823039F0833039F0089580
:1002300089B3089586B3089583B3089580B308956C
:1002400041E062E082E00E94360041E067E082E047
:100250000E94360041E063E083E00E94360040E007
:1002600060E081E00E94360040E066E083E00E94AA
:10027000360040E062E083E00E94360041E064E046
:1002800080E00E94360041E065E080E00E94360098
:1002900041E066E080E00E94360041E067E080E0F7
:1002A0000E94360041E061E081E00E94360041E0BA
:1002B00062E081E00E94360041E063E081E00E945C
:1002C000360041E064E080E00E94A30040E065E089
:1002D00080E00E94A30040E066E080E00E94A3006E
:1002E00040E067E080E00E94A30041E061E081E03F
:1002F0000E94A30041E062E081E00E94A30041E08F
:1003000063E081E00E94A30060E081E00E941001B0
:10031000182F66E083E00E941001D82F62E083E08E
:100320000E941001C82F113059F441E062E082E0D0
:100330000E94A30041E063E080E00E94A3000AC0A5
:1003400040E062E082E00E94A30040E063E080E0E1
:100350000E94A300D13031F440E067E082E00E94C7
:10036000A30005C041E067E082E00E94A300C13025
:1003700059F641E063E083E00E94A300C5CFF89402
:02038000FFCFAD
:00000001FF
