S01300004B45595041445F544553542E73726563B4
S11300000C942A000C9447000C9447000C9447006D
S11300100C9447000C9447000C9447000C94470040
S11300200C9447000C9447000C9447000C94470030
S11300300C9447000C9447000C9447000C94470020
S11300400C9447000C9447000C9447000C94470010
S11300500C94470011241FBECFE5D8E0DEBFCDBF0E
S113006010E0A0E6B0E0E6E8F4E002C005900D92EE
S1130070A837B107D9F720E0A8E7B0E001C01D9286
S1130080A937B207E1F70E9416020C9441020C94BE
S11300900000813001F130F08230B1F1833009F495
S11300A04CC00895413059F42AB381E090E002C075
S11300B0880F991F6A95E2F7822B8ABB08952AB3A9
S11300C081E090E002C0880F991F6A95E2F780955D
S11300D082238ABB0895413059F427B381E090E02C
S11300E002C0880F991F6A95E2F7822B87BB089597
S11300F027B381E090E002C0880F991F6A95E2F768
S11301008095822387BB0895413059F424B381E05C
S113011090E002C0880F991F6A95E2F7822B84BB96
S1130120089524B381E090E002C0880F991F6A9576
S1130130E2F78095822384BB0895413059F421B3BA
S113014081E090E002C0880F991F6A95E2F7822B44
S113015081BB089521B381E090E002C0880F991F0C
S11301606A95E2F78095822381BB0895813001F17D
S113017030F08230B1F1833009F44CC0089541303D
S113018059F42BB381E090E002C0880F991F6A955F
S1130190E2F7822B8BBB08952BB381E090E002C081
S11301A0880F991F6A95E2F7809582238BBB089587
S11301B0413059F428B381E090E002C0880F991FC0
S11301C06A95E2F7822B88BB089528B381E090E01A
S11301D002C0880F991F6A95E2F78095822388BB35
S11301E00895413059F425B381E090E002C0880FAE
S11301F0991F6A95E2F7822B85BB089525B381E0A8
S113020090E002C0880F991F6A95E2F780958223D7
S113021085BB0895413059F422B381E090E002C0D7
S1130220880F991F6A95E2F7822B82BB089522B347
S113023081E090E002C0880F991F6A95E2F78095EB
S1130240822382BB0895813041F028F0823039F056
S1130250833039F0089589B3089586B3089583B33C
S1130260089580B30895813089F028F08230C9F070
S1130270833011F108952BB381E090E002C0880F20
S1130280991F6A95E2F7822B8BBB089528B381E00E
S113029090E002C0880F991F6A95E2F7822B88BB11
S11302A0089525B381E090E002C0880F991F6A95F4
S11302B0E2F7822B85BB089522B381E090E002C06F
S11302C0880F991F6A95E2F7822B82BB0895BF922B
S11302D0CF92DF92EF92FF920F931F93CF93DF930E
S11302E06C018FEFF6018083B12CD0E045C0ED2E78
S11302F0F12CF701EC58FF4F40E0608180E00E9450
S1130300B600C0E02BC00C2F10E0F801E059FF4FFD
S1130310608182E00E9423018093780081111DC0D6
S1130320F801EE0FFF1FEE0FFF1FE05AFF4FEE0D17
S1130330FF1D8081F601808309C0F801E059FF4F59
S1130340608182E00E94230180937800809178008C
S1130350882399F3BB24B39403C0CF5FC43098F2CD
S1130360F701EC58FF4F41E0608180E00E94B60045
S1130370F1E0BF1621F0DF5FD43008F4B8CFDF918D
S1130380CF911F910F91FF90EF90DF90CF90BF908E
S1130390089541E064E080E00E94490041E065E0A6
S11303A080E00E94490041E066E080E00E9449004C
S11303B041E067E080E00E94490041E064E080E0C1
S11303C00E94B60041E065E080E00E94B60041E092
S11303D066E080E00E94B60041E067E080E00E94B1
S11303E0B60040E063E082E00E94490040E064E03F
S11303F082E00E94490040E065E082E00E944900FA
S113040040E066E082E00E94490063E082E00E94EE
S1130410330164E082E00E94330165E082E00E94DF
S1130420330166E082E00E9433010895CF93DF93A5
S11304301F92CDB7DEB70E94C90141E063E080E0BE
S11304400E94490041E067E082E00E94490041E0E7
S113045063E083E00E944900CE0101960E94670197
S113046089818F3FC9F3843031F441E063E080E057
S11304700E94B600F1CF40E063E080E00E94B60045
S1090480EBCFF894FFCF5E
S11304863132334134353642373839432A302344FE
S10B0496030405060405060732
S9030000FC
