:100000000C942A000C94E8000C943C000C943C00E6
:100010000C943C000C943C000C943C000C943C0070
:100020000C943C000C943C000C943C000C943A0161
:100030000C943C000C943C000C943C000C943C0050
:100040000C943C000C943C000C943C000C943C0040
:100050000C943C0011241FBECFE5D8E0DEBFCDBF1D
:1000600020E0A0E6B0E001C01D92A336B207E1F7A0
:100070000E948F010C942A030C94000060E080E041
:100080000E947C0161E080E00E947C0162E080E0EF
:100090000E947C0160E081E00E947C0161E081E0DF
:1000A0000E947C0162E081E00E947C0162E083E0CA
:1000B0000E948B010E9409030E942603789460E04D
:1000C00080E00E94A202089580916100811117C012
:1000D00062E00E94800160E081E00E9480010E9455
:1000E0001B038091610090E00196837090789923C2
:1000F00024F401978C6F9F6F01968093610080912B
:1001000061008130C1F40E941B0361E080E00E9425
:10011000840161E081E00E9484018091610090E0AF
:10012000019683709078992324F401978C6F9F6FC8
:1001300001968093610080916100823021F5809169
:100140006000882341F062E081E00E94800160E06D
:1001500081E00E94840162E080E00E94840160E00E
:1001600080E00E9480010E941B038091610090E06A
:10017000019683709078992324F401978C6F9F6F78
:100180000196809361000E941B0362E081E00E945F
:10019000840161E080E00E94840161E081E00E94CE
:1001A000840180916100833091F490E00196837026
:1001B0009078992324F401978C6F9F6F0196809318
:1001C000610060E080E00E94840110926000089568
:1001D0001F920F920FB60F9211242F933F934F93BC
:1001E0005F936F937F938F939F93AF93BF93EF939F
:1001F000FF938091600081112CC08091610081117A
:1002000003C094E190936200813059F461E080E092
:100210000E94840161E081E00E9484010E94200329
:1002200015C0823059F40E94200360E081E00E94F2
:10023000840162E081E00E94800108C0833031F4D3
:1002400084E18093620081E08093610081E080938B
:100250006000FF91EF91BF91AF919F918F917F913E
:100260006F915F914F913F912F910F900FBE0F9023
:100270001F9018951F920F920FB60F9211242F9373
:100280003F934F935F936F937F938F939F93AF931E
:10029000BF93EF93FF938BE00E940703809162006E
:1002A0008F5F8093620080916100813011F0833014
:1002B00091F480916000811104C061E00E94880186
:1002C0000AC0882341F061E080E00E94880161E07B
:1002D00081E00E948801FF91EF91BF91AF919F91C2
:1002E0008F917F916F915F914F913F912F910F90DF
:1002F0000FBE0F901F90189541E00E949401089541
:1003000041E00E940102089540E00E940102089528
:100310000E946E02089540E00E94940108950E9498
:100320003E000E946400FDCF813001F130F0823048
:10033000B1F1833009F44CC00895413059F42AB327
:1003400081E090E002C0880F991F6A95E2F7822B46
:100350008ABB08952AB381E090E002C0880F991FFC
:100360006A95E2F7809582238ABB0895413059F45B
:1003700027B381E090E002C0880F991F6A95E2F7E9
:10038000822B87BB089527B381E090E002C0880FDD
:10039000991F6A95E2F78095822387BB08954130C3
:1003A00059F424B381E090E002C0880F991F6A9548
:1003B000E2F7822B84BB089524B381E090E002C071
:1003C000880F991F6A95E2F78095822384BB089570
:1003D000413059F421B381E090E002C0880F991FA9
:1003E0006A95E2F7822B81BB089521B381E090E00A
:1003F00002C0880F991F6A95E2F78095822381BB1E
:100400000895813001F130F08230B1F1833009F488
:100410004CC00895413059F42BB381E090E002C004
:10042000880F991F6A95E2F7822B8BBB08952BB337
:1004300081E090E002C0880F991F6A95E2F78095ED
:1004400082238BBB0895413059F428B381E090E0BA
:1004500002C0880F991F6A95E2F7822B88BB089526
:1004600028B381E090E002C0880F991F6A95E2F7F7
:100470008095822388BB0895413059F425B381E0EB
:1004800090E002C0880F991F6A95E2F7822B85BB26
:10049000089525B381E090E002C0880F991F6A9506
:1004A000E2F78095822385BB0895413059F422B349
:1004B00081E090E002C0880F991F6A95E2F7822BD5
:1004C00082BB089522B381E090E002C0880F991F9B
:1004D0006A95E2F78095822382BB0895813089F086
:1004E00028F08230C9F0833011F108952BB381E0F8
:1004F00090E002C0880F991F6A95E2F782278BBBB4
:10050000089528B381E090E002C0880F991F6A9592
:10051000E2F7822788BB089525B381E090E002C00E
:10052000880F991F6A95E2F7822785BB089522B349
:1005300081E090E002C0880F991F6A95E2F7822758
:1005400082BB0895813061F120F0823009F44FC000
:100550000895613069F028F0623089F06330B1F0BD
:100560001BC084B78B7F84BF84B7886084BF14C0EE
:1005700084B7846084BF84B7886084BF0DC084B7AB
:100580008B7F84BF84B7877F84BF06C084B78460B5
:1005900084BF84B7877F84BF8BB780648BBF089587
:1005A000613069F028F0623089F06330B1F01BC02F
:1005B00084B78E7F84BF84B7826084BF14C084B741
:1005C000816084BF84B7826084BF0DC084B78E7F92
:1005D00084BF84B78D7F84BF06C084B7816084BF29
:1005E00084B78D7F84BF8BB780688BBF08956623E7
:1005F00019F0613029F007C084B7806484BF03C05C
:1006000084B78F7B84BF8BB780628BBF089582BF16
:10061000089583B783BF8BE00E940703089583B7D3
:10062000856083BF809162008431E0F3089513BE3A
:100630001092620008950E940F030E94170308950C
:100640008BE00E94070310926200089589B78160D1
:0806500089BF0895F894FFCF63
:00000001FF
