:100000000C942A000C945B010C9434000C94340082
:100010000C9434000C9434000C9434000C94340090
:100020000C9434000C9434000C9434000C94340080
:100030000C9434000C9434000C9434000C94340070
:100040000C9434000C9434000C9434000C94340060
:100050000C94340011241FBECFE5D8E0DEBFCDBF25
:100060000E943C010C9481010C940000813001F14C
:1000700030F08230B1F1833009F44CC00895413042
:1000800059F42AB381E090E002C0880F991F6A9565
:10009000E2F7822B8ABB08952AB381E090E002C088
:1000A000880F991F6A95E2F7809582238ABB08958D
:1000B000413059F427B381E090E002C0880F991FC6
:1000C0006A95E2F7822B87BB089527B381E090E021
:1000D00002C0880F991F6A95E2F78095822387BB3B
:1000E0000895413059F424B381E090E002C0880FB4
:1000F000991F6A95E2F7822B84BB089524B381E0AF
:1001000090E002C0880F991F6A95E2F780958223DC
:1001100084BB0895413059F421B381E090E002C0DE
:10012000880F991F6A95E2F7822B81BB089521B34E
:1001300081E090E002C0880F991F6A95E2F78095F0
:10014000822381BB0895813089F028F08230C9F084
:10015000833011F108952BB381E090E002C0880F45
:10016000991F6A95E2F782278BBB089528B381E037
:1001700090E002C0880F991F6A95E2F7822788BB3A
:10018000089525B381E090E002C0880F991F6A9519
:10019000E2F7822785BB089522B381E090E002C098
:1001A000880F991F6A95E2F7822782BB08958130F4
:1001B00061F120F0823009F44FC00895613069F098
:1001C00028F0623089F06330B1F01BC084B78B7FB8
:1001D00084BF84B7886084BF14C084B7846084BF40
:1001E00084B7886084BF0DC084B78B7F84BF84B719
:1001F000877F84BF06C084B7846084BF84B7877F4D
:1002000084BF8BB780648BBF0895613069F028F09C
:10021000623089F06330B1F01BC084B78E7F84BF39
:1002200084B7826084BF14C084B7816084BF84B700
:10023000826084BF0DC084B78E7F84BF84B78D7FFA
:1002400084BF06C084B7816084BF84B78D7F84BFBC
:100250008BB780688BBF0895662319F0613029F051
:1002600007C084B7806484BF03C084B78F7B84BF1A
:100270008BB780628BBF089541E062E082E00E940C
:10028000360041E063E083E00E9436008FB780686B
:100290008FBF60E080E00E94D7002FEF89E698E1F1
:1002A000215080409040E1F700C0000063E083E00F
:1002B0000E94A300F2CF1F920F920FB60F9211244B
:1002C0002F933F934F935F936F937F938F939F935E
:1002D000AF93BF93EF93FF9362E082E00E94A3008D
:1002E000FF91EF91BF91AF919F918F917F916F910E
:1002F0005F914F913F912F910F900FBE0F901F90E4
:060300001895F894FFCFF0
:00000001FF
