S011000046696673745F4C41422E73726563E9
S11300000C942A000C943F000C943F000C943F0085
S11300100C943F000C943F000C943F000C943F0060
S11300200C943F000C943F000C943F000C943F0050
S11300300C943F000C943F000C943F000C943F0040
S11300400C943F000C943F000C943F000C943F0030
S11300500C943F0011241FBECFE5D8E0DEBFCDBF16
S113006010E0A0E6B0E0EAE6F3E002C005900D92ED
S1130070A838B107D9F70E947B010C94B3010C9402
S11300800000442319F04130B1F00895E82FF0E066
S1130090EE0FFF1FE05AFF4F0190F081E02D208109
S11300A081E090E002C0880F991F6A95E2F780957D
S11300B0822380830895E82FF0E0EE0FFF1FE05ABB
S11300C0FF4F0190F081E02D208181E090E002C09B
S11300D0880F991F6A95E2F7822B80830895E82F91
S11300E0F0E0EE0FFF1FE859FF4F0190F081E02D83
S11300F0208181E090E002C0880F991F6A95E2F7A1
S1130100822B80830895E82FF0E0EE0FFF1FE8595B
S1130110FF4F0190F081E02D208181E090E002C04A
S1130120880F991F6A95E2F780958223808308954A
S1130130E82FF0E0EE0FFF1FE859FF4F0190F08128
S1130140E02D60830895E82FF0E0EE0FFF1FE05AE2
S1130150FF4F0190F081E02D60830895E82FF0E0D7
S1130160EE0FFF1FE859FF4F0190F081E02D8081D1
S1130170089563E080E00E946F0088E08A95F1F7BB
S113018063E080E00E9483000895CF93C82F80E04D
S113019090E00E94AE006C2F62956F70807F682B98
S11301A080E00E94980061E081E00E946F000E945C
S11301B0B90087EB9BE00197F1F700C0000080E0F5
S11301C090E00E94AE00CF70807F6C2F682B80E09F
S11301D00E94980061E080E00E946F000E94B900D4
S11301E08FE697E10197F1F700C00000CF910895E1
S11301F0CF92DF92EF92FF92CF93DF93EC01C12C69
S1130200D12C760107C00E94C5008FEFC81AD80A06
S1130210E80AF80AFE01EC0DFD1D80818111F3CF7F
S1130220DF91CF91FF90EF90DF90CF900895CF931F
S1130230C82F80E090E00E94AE006C2F62956F7032
S1130240807F682B80E00E94980061E080E00E943B
S113025083000E94B90087EB9BE00197F1F700C08F
S1130260000080E090E00E94AE00CF70807F6C2F91
S1130270682B80E00E94980061E080E00E94830087
S11302800E94B9008FE697E10197F1F700C00000E2
S1130290CF9108956AEF80E00E94A30063E080E0BC
S11302A00E9483008FE59AEE0197F1F700C00000E9
S11302B082E00E94170188E20E9417018CE00E94EC
S11302C0170181E00E94170180E80E94170180E76E
S11302D090E00E94F8009FEF2CED8DE691502040B5
S11302E08040E1F700C0000081E00E94170180E82F
S11302F00E941701089541E062E082E00E944100FB
S113030041E067E082E00E94410041E063E083E075
S11303100E94410062E082E00E946F0067E082E098
S11303200E946F0063E083E00E946F002FEF81EE74
S113033094E0215080409040E1F700C0000062E06A
S113034082E00E9483002FEF81EE94E021508040F0
S11303509040E1F700C000000E944A0181E890E06B
S10D03600E94F800D7CFF894FFCFF5
S113036A3A003700340031003B00380035003200CF
S113037A416D6172204D6F68616D656420203A2970
S10B038A004B48414C414600C0
S9030000FC
