S00B00007373642E73726563CF
S11300000C942A000C9434000C9434000C943400A6
S11300100C9434000C9434000C9434000C9434008C
S11300200C9434000C9434000C9434000C9434007C
S11300300C9434000C9434000C9434000C9434006C
S11300400C9434000C9434000C9434000C9434005C
S11300500C94340011241FBECFE5D8E0DEBFCDBF21
S11300600E9410010C94D3010C940000813001F122
S113007030F08230B1F1833009F44CC0089541303E
S113008059F42AB381E090E002C0880F991F6A9561
S1130090E2F7822B8ABB08952AB381E090E002C084
S11300A0880F991F6A95E2F7809582238ABB089589
S11300B0413059F427B381E090E002C0880F991FC2
S11300C06A95E2F7822B87BB089527B381E090E01D
S11300D002C0880F991F6A95E2F78095822387BB37
S11300E00895413059F424B381E090E002C0880FB0
S11300F0991F6A95E2F7822B84BB089524B381E0AB
S113010090E002C0880F991F6A95E2F780958223D8
S113011084BB0895413059F421B381E090E002C0DA
S1130120880F991F6A95E2F7822B81BB089521B34A
S113013081E090E002C0880F991F6A95E2F78095EC
S1130140822381BB0895813001F130F08230B1F116
S1130150833009F44CC00895413059F42BB381E045
S113016090E002C0880F991F6A95E2F7822B8BBB3F
S113017008952BB381E090E002C0880F991F6A951F
S1130180E2F7809582238BBB0895413059F428B35C
S113019081E090E002C0880F991F6A95E2F7822BF4
S11301A088BB089528B381E090E002C0880F991FAE
S11301B06A95E2F78095822388BB0895413059F40B
S11301C025B381E090E002C0880F991F6A95E2F799
S11301D0822B85BB089525B381E090E002C0880F8F
S11301E0991F6A95E2F78095822385BB0895413073
S11301F059F422B381E090E002C0880F991F6A95F8
S1130200E2F7822B82BB089522B381E090E002C022
S1130210880F991F6A95E2F78095822382BB08951F
S11302200E941A0161E089E00E94760185E20E9441
S11302309001FCCF41E061E081E00E94360041E0A2
S113024062E081E00E94360041E063E081E00E94C8
S1130250360041E064E080E00E94360041E065E061
S113026080E00E94360041E066E080E00E943600B3
S113027041E067E080E00E9436000895CF93C82FE4
S113028080FF06C041E064E080E00E94A30005C056
S113029040E064E080E00E94A300C1FF06C041E0AA
S11302A065E080E00E94A30005C040E065E080E0D6
S11302B00E94A300C2FF06C041E066E080E00E9405
S11302C0A30005C040E066E080E00E94A300C3FFF5
S11302D006C041E067E080E00E94A30005C040E062
S11302E067E080E00E94A300CF910895CF93C82FC8
S11302F0613019F0623051F011C041E062E081E0F8
S11303000E94A3008C2F0E943E0108C041E061E0DE
S113031081E00E94A3008C2F0E943E01CF9108959A
S1130320CF93DF93D82F40E062E081E00E94A300E6
S113033040E061E081E00E94A300CDECDC9FC12D90
S11303401124C695C695C6958C2F0E943E0141E0A6
S113035062E081E00E94A3008FE39CE90197F1F73A
S113036000C0000040E062E081E00E94A300CC0FE6
S11303708C2F880F880FC80F8D2F8C1B0E943E0175
S113038041E061E081E00E94A3008FE39CE90197D2
S1130390F1F700C0000040E061E081E00E94A300AA
S10D03A0DF91CF910895F894FFCF88
S9030000FC
