:100000000C942A000C9434000C9434000C943400AA
:100010000C9434000C9434000C9434000C94340090
:100020000C9434000C9434000C9434000C94340080
:100030000C9434000C9434000C9434000C94340070
:100040000C9434000C9434000C9434000C94340060
:100050000C94340011241FBECFE5D8E0DEBFCDBF25
:100060000E9441010C94BE010C94000087B1806491
:1000700087B987B18F7787B987B18F7D87B986B107
:100080008F7D86B986B1816086B986B1826086B976
:1000900086B1846086B986B1806886B90895FC010E
:1000A0006032A0F4892B91F097B1907E97B997B107
:1000B000692B67B996B1906496B9349BFECF96B11F
:1000C000906196B984B195B1918380830895813010
:1000D00001F130F08230B1F1833009F44CC0089561
:1000E000413059F42AB381E090E002C0880F991F93
:1000F0006A95E2F7822B8ABB08952AB381E090E0EB
:1001000002C0880F991F6A95E2F7809582238ABB07
:100110000895413059F427B381E090E002C0880F80
:10012000991F6A95E2F7822B87BB089527B381E078
:1001300090E002C0880F991F6A95E2F780958223AC
:1001400087BB0895413059F424B381E090E002C0A8
:10015000880F991F6A95E2F7822B84BB089524B318
:1001600081E090E002C0880F991F6A95E2F78095C0
:10017000822384BB0895413059F421B381E090E09B
:1001800002C0880F991F6A95E2F7822B81BB089500
:1001900021B381E090E002C0880F991F6A95E2F7D1
:1001A0008095822381BB0895813001F130F0823047
:1001B000B1F1833009F44CC00895413059F42BB3A8
:1001C00081E090E002C0880F991F6A95E2F7822BC8
:1001D0008BBB08952BB381E090E002C0880F991F7C
:1001E0006A95E2F7809582238BBB0895413059F4DC
:1001F00028B381E090E002C0880F991F6A95E2F76A
:10020000822B88BB089528B381E090E002C0880F5C
:10021000991F6A95E2F78095822388BB0895413043
:1002200059F425B381E090E002C0880F991F6A95C8
:10023000E2F7822B85BB089525B381E090E002C0F0
:10024000880F991F6A95E2F78095822385BB0895F0
:10025000413059F422B381E090E002C0880F991F29
:100260006A95E2F7822B82BB089522B381E090E089
:1002700002C0880F991F6A95E2F78095822382BB9E
:100280000895CF93DF9300D0CDB7DEB70E9436003C
:1002900040E061E080E00E94670041E062E082E0CF
:1002A0000E94670041E067E082E00E94670041E051
:1002B00063E083E00E94670061E0CE0101960E9446
:1002C0004F0029813A81A8E8B3E10E94AF01DC0127
:1002D000CB01072E7AE0B695A795979587957A95E5
:1002E000D1F7702DBC016C3D85E0780780F441E0CA
:1002F00062E082E00E94D40040E067E082E00E9479
:10030000D40040E063E083E00E94D400D5CF683B96
:100310008BE0780780F440E062E082E00E94D40045
:1003200041E067E082E00E94D40040E063E083E0C7
:100330000E94D400C1CF6439714108F0BDCF40E0C4
:1003400062E082E00E94D40040E067E082E00E9428
:10035000D40041E063E083E00E94D400ADCFA29FCF
:10036000B001B39FC001A39F700D811D1124911D89
:10037000B29F700D811D1124911D0895F894FFCF37
:00000001FF
