S01A000067726164756174696F6E2070726F6A6563742E73726563C5
S11300000C942A000C94BE030C9447000C944700F3
S11300100C9447000C9447000C9447000C94470040
S11300200C9447000C9447000C94AF040C948D047A
S11300300C9447000C9447000C9447000C94470020
S11300400C9447000C9447000C9447000C94470010
S11300500C94470011241FBECFE5D8E0DEBFCDBF0E
S113006010E0A0E6B0E0E0ECFAE002C005900D92EA
S1130070A436B107D9F720E0A4E6B0E001C01D9290
S1130080AA36B207E1F70E94B7020C945E050C94FD
S1130090000087B1806487B987B18F7787B987B14A
S11300A08F7D87B986B18F7D86B986B1816086B927
S11300B086B1826086B986B1846086B986B180686B
S11300C086B908958032B0F46115710599F097B13D
S11300D0907E97B997B1892B87B986B1806486B928
S11300E0349BFECF86B1806186B984B195B1FB01A2
S11300F0918380830895813001F130F08230B1F131
S1130100833009F44CC00895413059F42AB381E096
S113011090E002C0880F991F6A95E2F7822B8ABB90
S113012008952AB381E090E002C0880F991F6A9570
S1130130E2F7809582238ABB0895413059F427B3AE
S113014081E090E002C0880F991F6A95E2F7822B44
S113015087BB089527B381E090E002C0880F991F00
S11301606A95E2F78095822387BB0895413059F45C
S113017024B381E090E002C0880F991F6A95E2F7EA
S1130180822B84BB089524B381E090E002C0880FE1
S1130190991F6A95E2F78095822384BB08954130C4
S11301A059F421B381E090E002C0880F991F6A9549
S11301B0E2F7822B81BB089521B381E090E002C075
S11301C0880F991F6A95E2F78095822381BB089571
S11301D0813001F130F08230B1F1833009F44CC048
S11301E00895413059F42BB381E090E002C0880FA8
S11301F0991F6A95E2F7822B8BBB08952BB381E09C
S113020090E002C0880F991F6A95E2F780958223D7
S11302108BBB0895413059F428B381E090E002C0CB
S1130220880F991F6A95E2F7822B88BB089528B33B
S113023081E090E002C0880F991F6A95E2F78095EB
S1130240822388BB0895413059F425B381E090E0BE
S113025002C0880F991F6A95E2F7822B85BB089527
S113026025B381E090E002C0880F991F6A95E2F7F8
S11302708095822385BB0895413059F422B381E0EF
S113028090E002C0880F991F6A95E2F7822B82BB27
S1130290089522B381E090E002C0880F991F6A9507
S11302A0E2F78095822382BB0895813081F028F0A3
S11302B08230B9F08330F9F027C089B390E002C0EE
S11302C0959587956A95E2F7982F91701DC086B32E
S11302D090E002C0959587956A95E2F7982F917002
S11302E013C083B390E002C0959587956A95E2F7B1
S11302F0982F917009C080B390E002C095958795BE
S11303006A95E2F7982F9170892F08951F93CF93E0
S1130310DF93D82FC62F192F10650E94F504812F63
S11303200E9418058D2F0E9442058C2F0E944205C1
S11303300E9411058FE19EE40197F1F700C00000CF
S1130340DF91CF911F9108950F931F93CF93DF9364
S1130350D82F8B01C92FC0650E94F5048C2F0E94F1
S113036018058D2F0E9442050E9403058C2F0E94C0
S11303702D05C8010E944E050E9411058FE19EE4DF
S11303800197F1F700C00000DF91CF911F910F9109
S11303900895FF920F931F93CF93DF938C01F62E52
S11303A0C0E02DC0FF2069F166E083E00E945501A2
S11303B0D82F60E081E00E945501D13041F4F8016A
S11303C080818B3478F48B5F8083C0E00BC08130F4
S11303D041F4F8018081843228F085508083C0E0A4
S11303E001C0CF5FFFEF23EC89E0F1502040804053
S11303F0E1F700C00000F80180810E943A04C9318D
S113040088F2DF91CF911F910F91FF90089541E001
S113041067E082E00E947B0040E061E080E00E94AF
S11304207B0040E066E083E00E947B0040E060E007
S113043081E00E947B0041E060E080E00E947B005C
S113044041E062E080E00E947B0008950E94490040
S11304500E94E6040E94DE038FB780688FBF61E0CC
S113046080E00E94520208958352893228F06CE39E
S113047089EC90E00E9486010895BC0181E00E940D
S11304806200089541E060E080E00E94E80041E0FD
S113049062E080E00E94E80040E067E082E00E94C1
S11304A0E8000895813061F120F0823009F44FC0F2
S11304B00895613069F028F0623089F06330B1F05A
S11304C01BC085B7816085BF85B7826085BF14C0B6
S11304D085B78E7F85BF85B7826085BF0DC085B720
S11304E08E7F85BF85B78D7F85BF06C085B7816048
S11304F085BF85B78D7F85BF8BB780648BBF08951B
S1130500613069F028F0623089F06330B1F01BC0CB
S113051085B7846085BF85B7886085BF14C085B7FB
S11305208B7F85BF85B7886085BF0DC085B78B7FFE
S113053085BF85B7877F85BF06C085B7846085BFC3
S113054085B7877F85BF8BB780688BBF0895662387
S113055019F0613029F007C084B7806484BF03C0F8
S113056084B78F7B84BF8BB780628BBF0895CF9392
S1130570DF9300D01F92CDB7DEB70E9407020E941E
S113058026028B810E943402BE016D5F7F4F89EC8D
S113059090E00E94A401CE0101960E943D02809148
S11305A06200813009F0E7C066E083E00E945501F3
S11305B0182F60E081E00E945501113011F0813064
S11305C0A1F42FEF89E698E1215080409040E1F7B3
S11305D000C0000060916200CE0103960E94C90130
S11305E06B8189EC90E00E94860189810E943A0423
S11305F08B8190E0AC014550510929813A81421721
S1130600530708F461C040E061E080E00E94E80024
S11306104DC0CE0101960E943D0280916200882364
S113062009F44CC0BE016D5F7F4F89EC90E00E94DD
S1130630A40166E083E00E945501182F60E081E088
S11306400E945501113011F08130A9F42FEF89E691
S113065098E1215080409040E1F700C00000609193
S11306606200CE0103960E94C9016B8189EC90E07F
S11306700E94860123C089810E943A0441E067E018
S113068082E00E94E80068EC89810E947D04BE013A
S11306906F5F7F4F82E00E94620040E067E082E08B
S11306A00E94E80068EC89810E947D048B8190E0BF
S11306B029813A818217930709F0ABCF41E061E0C9
S11306C080E00E94E80067CF05962817390708F4F0
S11306D062CF40E060E080E00E94E80039C0CE01D3
S11306E001960E943D02809162008823C9F1BE01F7
S11306F06D5F7F4F89EC90E00E94A40166E083E087
S11307000E945501182F60E081E00E9455011130CC
S113071011F08130A9F42FEF89E698E1215080404F
S11307209040E1F700C0000060916200CE010396A2
S11307300E94C9016B8189EC90E00E94860110C07F
S113074089810E943A0441E067E082E00E94E80067
S11307508B8190E029813A818217930709F0BFCFFA
S113076040E067E082E00E94E80041E061E080E070
S11307700E94E80010CF0E9442020DCF1F920F92F8
S11307800FB60F9211248F93EF93FF938091620021
S1130790813031F4E0916000F0916100108206C074
S11307A0E0916000F091610081E08083FF91EF911E
S11307B08F910F900FBE0F901F90189541E064E049
S11307C080E00E947B0041E065E080E00E947B00C5
S11307D041E066E080E00E947B0041E067E080E069
S11307E00E947B0041E061E081E00E947B0041E0E7
S11307F062E081E00E947B0041E063E081E00E94CE
S11308007B000895CF93C82F80FF06C041E064E0C9
S113081080E00E94E80005C040E064E080E00E94BF
S1130820E800C1FF06C041E065E080E00E94E80006
S113083005C040E065E080E00E94E800C2FF06C019
S113084041E066E080E00E94E80005C040E066E028
S113085080E00E94E800C3FF06C041E067E080E05A
S11308600E94E80005C040E067E080E00E94E800E4
S1130870CF910895CF93DF93D82F40E062E081E0D9
S11308800E94E80040E061E081E00E94E800CDECD5
S1130890DC9FC12D1124C695C695C6958C2F0E9448
S11308A0020441E062E081E00E94E8008FE39CE9F9
S11308B00197F1F700C0000040E062E081E00E948F
S11308C0E800CC0F8C2F880F880FC80F8D2F8C1B3E
S11308D00E94020441E061E081E00E94E8008FE3AD
S11308E09CE90197F1F700C0000040E061E081E07D
S11308F00E94E800DF91CF9108951F93CF93DF9377
S1130900182FD62F04C0812F0E943A04CC5ECD1735
S1130910D0F3DF91CF911F9108951F920F920FB6DC
S11309200F9211242F938F939F938091660090913F
S1130930670001969093670080936600813D934021
S113094031F480E782BF10926700109266009F9195
S11309508F912F910F900FBE0F901F9018951F929B
S11309600F920FB60F9211242F933F934F935F93DF
S11309706F937F938F939F93AF93BF93EF93FF9363
S11309808091640090916500019690936500809336
S113099064008C3D954049F4109265001092640007
S11309A0E0916800F09169000995FF91EF91BF9182
S11309B0AF919F918F917F916F915F914F913F91F3
S11309C02F910F900FBE0F901F90189581B18E7FBD
S11309D081B981B18D7F81B98CE080B986B780649B
S11309E086BF86B7846086BF089586B7806286BF57
S11309F086B7806886BF06B607FEFDCF81B1887FC3
S1130A008830E1F7089586B7806286BF86B780682C
S1130A1086BF06B607FEFDCF81B1887F8031E1F73E
S1130A20089586B7806186BF86B7806886BF0895BB
S1130A30882394F0880F83B983B18E7F83B986B7F6
S1130A408F7D86BF86B7806886BF06B607FEFDCF5A
S1130A5081B1887F8831E1F70895882394F0880F65
S1130A6083B983B1816083B986B78F7D86BF86B72A
S1130A70806886BF06B607FEFDCF81B1887F8034CB
S1130A80E1F7089583B986B7806886BF06B607FE86
S1130A90FDCF81B1887F8832E1F70895FC01892B6D
S1130AA061F096B7906896BF06B607FEFDCF91B188
S1130AB0987F9035E1F783B180830895F894FFCF50
S1070AC062000100CB
S9030000FC
