S0160000554152545F696E746572666163652E73726563C2
S11300000C942A000C9434000C9434000C943400A6
S11300100C9434000C9434000C9434000C9434008C
S11300200C9434000C9434000C9434000C9434007C
S11300300C9434000C9434000C9434000C9434006C
S11300400C9434000C9434000C9434000C9434005C
S11300500C94340011241FBECFE5D8E0DEBFCDBF21
S11300600E94A3000C94CE000C940000813001F196
S113007030F08230B1F1833009F44CC0089541303E
S113008059F42AB381E090E002C0880F991F6A9561
S1130090E2F7822B8ABB08952AB381E090E002C084
S11300A0880F991F6A95E2F7809582238ABB089589
S11300B0413059F427B381E090E002C0880F991FC2
S11300C06A95E2F7822B87BB089527B381E090E01D
S11300D002C0880F991F6A95E2F78095822387BB37
S11300E00895413059F424B381E090E002C0880FB0
S11300F0991F6A95E2F7822B84BB089524B381E0AB
S113010090E002C0880F991F6A95E2F780958223D8
S113011084BB0895413059F421B381E090E002C0DA
S1130120880F991F6A95E2F7822B81BB089521B34A
S113013081E090E002C0880F991F6A95E2F78095EC
S1130140822381BB089541E061E083E00E94360090
S113015040E060E083E00E9436000E94BC0088E436
S11301600E94CA002FEF83ED90E32150804090401D
S1130170E1F700C00000F3CF86E880BD8AB18B7F31
S11301808AB987E689B98AB188608AB98AB18860F0
S11301908AB908958CB95D9BFECF0895F894FFCF7A
S9030000FC
